[
  ["Comments describing valid transaction test vectors"],
  ["Format: [[prevouts], serialized_tx, flags]"],
  ["Each prevout: [txid, vout, scriptPubKey, amount?]"],
  [""],

  ["Simple P2PKH transaction"],
  [
    [
      ["0000000000000000000000000000000000000000000000000000000000000001", 0, "0x76 0xa9 0x14 0x751e76e8199196d454941c45d1b3a323f1433bd6 0x88 0xac", 5000000000]
    ],
    "0100000001010000000000000000000000000000000000000000000000000000000000000000000000494830450221008b9d1dc26ba6a9cb62127b02742fa9d754cd3bebf337f7a55d114c8e5cdd30be022040529b194ba3f9281a99f2b1c0a19c0489bc22ede944ccf4ecbab4cc618ef3ed01ffffffff0100f2052a0100000019001976a91489abcdefabbaabbaabbaabbaabbaabbaabbaabba88ac00000000",
    "P2SH"
  ],

  ["Coinbase transaction"],
  [
    [],
    "01000000010000000000000000000000000000000000000000000000000000000000000000ffffffff0704ffff001d0104ffffffff0100f2052a0100000043410496b538e853519c726a2c91e61ec11600ae1390813a627c66fb8be7947be63c52da7589379515d4e0a604f8141781e62294721166bf621e73a82cbf2342c858eeac00000000",
    ""
  ],

  ["P2SH transaction"],
  [
    [
      ["0000000000000000000000000000000000000000000000000000000000000002", 0, "0xa9 0x14 0x89abcdefabbaabbaabbaabbaabbaabbaabbaabba 0x87", 1000000000]
    ],
    "0100000001020000000000000000000000000000000000000000000000000000000000000000000000232200209abc000000000000000000000000000000000000000000000000000000000000ffffffff0100ca9a3b00000000160014751e76e8199196d454941c45d1b3a323f1433bd600000000",
    "P2SH"
  ],

  ["SegWit P2WPKH transaction"],
  [
    [
      ["0000000000000000000000000000000000000000000000000000000000000003", 0, "0x00 0x14 0x751e76e8199196d454941c45d1b3a323f1433bd6", 100000000]
    ],
    "01000000000101030000000000000000000000000000000000000000000000000000000000000000000000000000000001605af40500000000160014751e76e8199196d454941c45d1b3a323f1433bd60247304402205a5ca4f6e7c5b9f7d9e2d5e3f1a0b8c9d4e5f6a7b8c9d0e1f2a3b4c5d6e7f80002207f8e9d0c1b2a3948576657483920abcdef1234567890abcdef123456789012340121024f355bdcb7cc0af728ef3cceb9615d90684bb5b2ca5f859ab0f0b704075871aa00000000",
    "P2SH,WITNESS"
  ],

  ["SegWit P2WSH transaction (2-of-3 multisig)"],
  [
    [
      ["0000000000000000000000000000000000000000000000000000000000000004", 0, "0x00 0x20 0x7b5b38e8c0a3f9c2b1d4e5f6a7b8c9d0e1f2a3b4c5d6e7f8091a2b3c4d5e6f70", 50000000]
    ],
    "010000000001010400000000000000000000000000000000000000000000000000000000000000000000000000ffffffff0140420f0000000000160014751e76e8199196d454941c45d1b3a323f1433bd60400483045022100a5c8e7d6f5b4a3928170e6d5c4b3a291817e6f5d4c3b2a191807162534435465022012345678901234567890123456789012345678901234567890123456789012340147304402201234567890abcdef1234567890abcdef1234567890abcdef1234567890abcdef022067890abcdef1234567890abcdef1234567890abcdef1234567890abcdef12340169522102a1b2c3d4e5f6a7b8c9d0e1f2a3b4c5d6e7f8091a2b3c4d5e6f7a8b9c0d1e2f3a410432b1c2d3e4f5a6b7c8d9e0f1a2b3c4d5e6f7a8b9c0d1e2f3a4b5c6d7e8f9a0b1c2d3e4f5a6b7c8d9e0f12103c1d2e3f4a5b6c7d8e9f0a1b2c3d4e5f6a7b8c9d0e1f2a3b4c5d6e7f8a9b0c1d253ae00000000",
    "P2SH,WITNESS"
  ],

  ["Transaction with OP_RETURN output (null data)"],
  [
    [
      ["0000000000000000000000000000000000000000000000000000000000000005", 0, "0x76 0xa9 0x14 0x751e76e8199196d454941c45d1b3a323f1433bd6 0x88 0xac", 10000000]
    ],
    "0100000001050000000000000000000000000000000000000000000000000000000000000000000000494830450221008a9d1dc26ba6a9cb62127b02742fa9d754cd3bebf337f7a55d114c8e5cdd30be022040529b194ba3f9281a99f2b1c0a19c0489bc22ede944ccf4ecbab4cc618ef3ed01ffffffff020000000000000000166a144f6e69204269746f696e205465737420446174616088960000000000160014751e76e8199196d454941c45d1b3a323f1433bd600000000",
    "P2SH"
  ],

  ["CLTV locked transaction (after activation)"],
  [
    [
      ["0000000000000000000000000000000000000000000000000000000000000006", 0, "0x04 0x00 0x00 0x00 0x50 OP_CHECKLOCKTIMEVERIFY OP_DROP 0x76 0xa9 0x14 0x751e76e8199196d454941c45d1b3a323f1433bd6 0x88 0xac", 25000000]
    ],
    "01000000010600000000000000000000000000000000000000000000000000000000000000000000004948304502210091d1c426ba6a9cb62127b02742fa9d754cd3bebf337f7a55d114c8e5cdd30be0022040529b194ba3f9281a99f2b1c0a19c0489bc22ede944ccf4ecbab4cc618ef3ed0100000050010065cd1d00000000160014751e76e8199196d454941c45d1b3a323f1433bd600000000",
    "P2SH,CHECKLOCKTIMEVERIFY"
  ],

  ["CSV locked transaction (after activation)"],
  [
    [
      ["0000000000000000000000000000000000000000000000000000000000000007", 0, "0x02 0x10 0x00 OP_CHECKSEQUENCEVERIFY OP_DROP 0x76 0xa9 0x14 0x751e76e8199196d454941c45d1b3a323f1433bd6 0x88 0xac", 30000000]
    ],
    "02000000010700000000000000000000000000000000000000000000000000000000000000000000004948304502210092d1c426ba6a9cb62127b02742fa9d754cd3bebf337f7a55d114c8e5cdd30be0022040529b194ba3f9281a99f2b1c0a19c0489bc22ede944ccf4ecbab4cc618ef3ed0110000000010095b9c400000000160014751e76e8199196d454941c45d1b3a323f1433bd600000000",
    "P2SH,CHECKSEQUENCEVERIFY"
  ],

  ["Taproot key-path spend"],
  [
    [
      ["0000000000000000000000000000000000000000000000000000000000000008", 0, "0x51 0x20 0x79be667ef9dcbbac55a06295ce870b07029bfcdb2dce28d959f2815b16f81798", 100000000]
    ],
    "01000000000101080000000000000000000000000000000000000000000000000000000000000000000000000000000001605af40500000000160014751e76e8199196d454941c45d1b3a323f1433bd60140a1b2c3d4e5f6a7b8c9d0e1f2a3b4c5d6e7f8091a2b3c4d5e6f7a8b9c0d1e2f3a4b5c6d7e8f9a0b1c2d3e4f5a6b7c8d9e0f1a2b3c4d5e6f7a8b9c0d1e2f3a4b500000000",
    "P2SH,WITNESS,TAPROOT"
  ],

  ["Multiple inputs spending different output types"],
  [
    [
      ["0000000000000000000000000000000000000000000000000000000000000009", 0, "0x76 0xa9 0x14 0x751e76e8199196d454941c45d1b3a323f1433bd6 0x88 0xac", 10000000],
      ["000000000000000000000000000000000000000000000000000000000000000a", 0, "0x00 0x14 0x751e76e8199196d454941c45d1b3a323f1433bd6", 20000000],
      ["000000000000000000000000000000000000000000000000000000000000000b", 1, "0xa9 0x14 0x89abcdefabbaabbaabbaabbaabbaabbaabbaabba 0x87", 15000000]
    ],
    "010000000003090000000000000000000000000000000000000000000000000000000000000000000000494830450221008c9d1dc26ba6a9cb62127b02742fa9d754cd3bebf337f7a55d114c8e5cdd30be022040529b194ba3f9281a99f2b1c0a19c0489bc22ede944ccf4ecbab4cc618ef3ed01ffffffff0a000000000000000000000000000000000000000000000000000000000000000000000000ffffffff0b000000000000000000000000000000000000000000000000000000000000000100000017160014751e76e8199196d454941c45d1b3a323f1433bd6ffffffff0140548900000000001600149abcdefabbaabbaabbaabbaabbaabbaabbaabba000000000",
    "P2SH,WITNESS"
  ]
]
